{
  "_format": "hh-sol-artifact-1",
  "contractName": "jswitch",
  "sourceName": "contracts/jswitch.sol",
  "abi": [
    {
      "inputs": [
        {
          "internalType": "address payable",
          "name": "r",
          "type": "address"
        }
      ],
      "stateMutability": "payable",
      "type": "constructor"
    },
    {
      "inputs": [],
      "name": "getAddress",
      "outputs": [
        {
          "internalType": "address payable",
          "name": "",
          "type": "address"
        }
      ],
      "stateMutability": "view",
      "type": "function"
    },
    {
      "inputs": [],
      "name": "getBlock",
      "outputs": [
        {
          "internalType": "uint256",
          "name": "",
          "type": "uint256"
        }
      ],
      "stateMutability": "view",
      "type": "function"
    },
    {
      "inputs": [],
      "name": "getContractBalance",
      "outputs": [
        {
          "internalType": "uint256",
          "name": "",
          "type": "uint256"
        }
      ],
      "stateMutability": "view",
      "type": "function"
    },
    {
      "inputs": [],
      "name": "getLastAlive",
      "outputs": [
        {
          "internalType": "uint256",
          "name": "",
          "type": "uint256"
        }
      ],
      "stateMutability": "view",
      "type": "function"
    },
    {
      "inputs": [],
      "name": "getOwner",
      "outputs": [
        {
          "internalType": "address",
          "name": "",
          "type": "address"
        }
      ],
      "stateMutability": "view",
      "type": "function"
    },
    {
      "inputs": [],
      "name": "getOwnerBalance",
      "outputs": [
        {
          "internalType": "uint256",
          "name": "",
          "type": "uint256"
        }
      ],
      "stateMutability": "view",
      "type": "function"
    },
    {
      "inputs": [],
      "name": "getReceiver",
      "outputs": [
        {
          "internalType": "address payable",
          "name": "",
          "type": "address"
        }
      ],
      "stateMutability": "view",
      "type": "function"
    },
    {
      "inputs": [],
      "name": "getReceiverBalance",
      "outputs": [
        {
          "internalType": "uint256",
          "name": "",
          "type": "uint256"
        }
      ],
      "stateMutability": "view",
      "type": "function"
    },
    {
      "inputs": [],
      "name": "kill",
      "outputs": [],
      "stateMutability": "nonpayable",
      "type": "function"
    },
    {
      "inputs": [
        {
          "internalType": "address payable",
          "name": "r",
          "type": "address"
        }
      ],
      "name": "setReceiver",
      "outputs": [],
      "stateMutability": "nonpayable",
      "type": "function"
    },
    {
      "inputs": [],
      "name": "still_alive",
      "outputs": [],
      "stateMutability": "nonpayable",
      "type": "function"
    },
    {
      "inputs": [],
      "name": "transferFunds",
      "outputs": [],
      "stateMutability": "payable",
      "type": "function"
    },
    {
      "stateMutability": "payable",
      "type": "receive"
    }
  ],
  "bytecode": "0x608060405260405161091438038061091483398181016040528101906100259190610122565b336000806101000a81548173ffffffffffffffffffffffffffffffffffffffff021916908373ffffffffffffffffffffffffffffffffffffffff16021790555080600160006101000a81548173ffffffffffffffffffffffffffffffffffffffff021916908373ffffffffffffffffffffffffffffffffffffffff1602179055506001436100b39190610188565b600281905550506101bc565b600080fd5b600073ffffffffffffffffffffffffffffffffffffffff82169050919050565b60006100ef826100c4565b9050919050565b6100ff816100e4565b811461010a57600080fd5b50565b60008151905061011c816100f6565b92915050565b600060208284031215610138576101376100bf565b5b60006101468482850161010d565b91505092915050565b6000819050919050565b7f4e487b7100000000000000000000000000000000000000000000000000000000600052601160045260246000fd5b60006101938261014f565b915061019e8361014f565b9250828210156101b1576101b0610159565b5b828203905092915050565b610749806101cb6000396000f3fe6080604052600436106100ab5760003560e01c806341c0e1b51161006457806341c0e1b514610184578063590791f21461019b5780636f9fb98a146101c6578063718da7ee146101f1578063893d20e81461021a57806398aca92214610245576100b2565b806310fb7bc6146100b757806325cfecbe146100e25780632e97766d1461010d57806338cc4831146101385780633c68eb81146101635780633d58225a1461016d576100b2565b366100b257005b600080fd5b3480156100c357600080fd5b506100cc610270565b6040516100d9919061059f565b60405180910390f35b3480156100ee57600080fd5b506100f76102b1565b604051610104919061059f565b60405180910390f35b34801561011957600080fd5b506101226102bb565b60405161012f919061059f565b60405180910390f35b34801561014457600080fd5b5061014d6102c3565b60405161015a91906105fb565b60405180910390f35b61016b6102cb565b005b34801561017957600080fd5b5061018261035d565b005b34801561019057600080fd5b506101996103be565b005b3480156101a757600080fd5b506101b061044f565b6040516101bd919061059f565b60405180910390f35b3480156101d257600080fd5b506101db61048f565b6040516101e8919061059f565b60405180910390f35b3480156101fd57600080fd5b5061021860048036038101906102139190610647565b610497565b005b34801561022657600080fd5b5061022f610533565b60405161023c9190610695565b60405180910390f35b34801561025157600080fd5b5061025a61055c565b60405161026791906105fb565b60405180910390f35b6000600160009054906101000a900473ffffffffffffffffffffffffffffffffffffffff1673ffffffffffffffffffffffffffffffffffffffff1631905090565b6000600254905090565b600043905090565b600030905090565b600a6002546001436102dd91906106df565b6102e791906106df565b10156102f257600080fd5b600160009054906101000a900473ffffffffffffffffffffffffffffffffffffffff1673ffffffffffffffffffffffffffffffffffffffff166108fc479081150290604051600060405180830381858888f1935050505015801561035a573d6000803e3d6000fd5b50565b60008054906101000a900473ffffffffffffffffffffffffffffffffffffffff1673ffffffffffffffffffffffffffffffffffffffff163373ffffffffffffffffffffffffffffffffffffffff16146103b557600080fd5b43600281905550565b60008054906101000a900473ffffffffffffffffffffffffffffffffffffffff1673ffffffffffffffffffffffffffffffffffffffff163373ffffffffffffffffffffffffffffffffffffffff161461041657600080fd5b60008054906101000a900473ffffffffffffffffffffffffffffffffffffffff1673ffffffffffffffffffffffffffffffffffffffff16ff5b60008060009054906101000a900473ffffffffffffffffffffffffffffffffffffffff1673ffffffffffffffffffffffffffffffffffffffff1631905090565b600047905090565b60008054906101000a900473ffffffffffffffffffffffffffffffffffffffff1673ffffffffffffffffffffffffffffffffffffffff163373ffffffffffffffffffffffffffffffffffffffff16146104ef57600080fd5b80600160006101000a81548173ffffffffffffffffffffffffffffffffffffffff021916908373ffffffffffffffffffffffffffffffffffffffff16021790555050565b60008060009054906101000a900473ffffffffffffffffffffffffffffffffffffffff16905090565b6000600160009054906101000a900473ffffffffffffffffffffffffffffffffffffffff16905090565b6000819050919050565b61059981610586565b82525050565b60006020820190506105b46000830184610590565b92915050565b600073ffffffffffffffffffffffffffffffffffffffff82169050919050565b60006105e5826105ba565b9050919050565b6105f5816105da565b82525050565b600060208201905061061060008301846105ec565b92915050565b600080fd5b610624816105da565b811461062f57600080fd5b50565b6000813590506106418161061b565b92915050565b60006020828403121561065d5761065c610616565b5b600061066b84828501610632565b91505092915050565b600061067f826105ba565b9050919050565b61068f81610674565b82525050565b60006020820190506106aa6000830184610686565b92915050565b7f4e487b7100000000000000000000000000000000000000000000000000000000600052601160045260246000fd5b60006106ea82610586565b91506106f583610586565b925082821015610708576107076106b0565b5b82820390509291505056fea264697066735822122084c54c24d68af20359a3c2420a6425107b06ef6360fd444a4ced4d4491d8c25664736f6c63430008090033",
  "linkReferences": {},
  "deployedLinkReferences": {}
}